{
  "_format": "hh-sol-artifact-1",
  "contractName": "NFTMarketplace",
  "sourceName": "contracts/NFT.sol",
  "abi": [
    {
      "inputs": [],
      "stateMutability": "nonpayable",
      "type": "constructor"
    },
    {
      "anonymous": false,
      "inputs": [
        {
          "indexed": true,
          "internalType": "address",
          "name": "owner",
          "type": "address"
        },
        {
          "indexed": true,
          "internalType": "address",
          "name": "approved",
          "type": "address"
        },
        {
          "indexed": true,
          "internalType": "uint256",
          "name": "tokenId",
          "type": "uint256"
        }
      ],
      "name": "Approval",
      "type": "event"
    },
    {
      "anonymous": false,
      "inputs": [
        {
          "indexed": true,
          "internalType": "address",
          "name": "owner",
          "type": "address"
        },
        {
          "indexed": true,
          "internalType": "address",
          "name": "operator",
          "type": "address"
        },
        {
          "indexed": false,
          "internalType": "bool",
          "name": "approved",
          "type": "bool"
        }
      ],
      "name": "ApprovalForAll",
      "type": "event"
    },
    {
      "anonymous": false,
      "inputs": [
        {
          "indexed": true,
          "internalType": "uint256",
          "name": "tokenId",
          "type": "uint256"
        },
        {
          "indexed": false,
          "internalType": "uint256",
          "name": "price",
          "type": "uint256"
        }
      ],
      "name": "NFTListed",
      "type": "event"
    },
    {
      "anonymous": false,
      "inputs": [
        {
          "indexed": true,
          "internalType": "uint256",
          "name": "tokenId",
          "type": "uint256"
        },
        {
          "indexed": false,
          "internalType": "address",
          "name": "from",
          "type": "address"
        },
        {
          "indexed": false,
          "internalType": "address",
          "name": "to",
          "type": "address"
        },
        {
          "indexed": false,
          "internalType": "uint256",
          "name": "price",
          "type": "uint256"
        }
      ],
      "name": "NFTSold",
      "type": "event"
    },
    {
      "anonymous": false,
      "inputs": [
        {
          "indexed": true,
          "internalType": "uint256",
          "name": "tokenId",
          "type": "uint256"
        }
      ],
      "name": "NFTUnlisted",
      "type": "event"
    },
    {
      "anonymous": false,
      "inputs": [
        {
          "indexed": true,
          "internalType": "address",
          "name": "from",
          "type": "address"
        },
        {
          "indexed": true,
          "internalType": "address",
          "name": "to",
          "type": "address"
        },
        {
          "indexed": true,
          "internalType": "uint256",
          "name": "tokenId",
          "type": "uint256"
        }
      ],
      "name": "Transfer",
      "type": "event"
    },
    {
      "inputs": [
        {
          "internalType": "address",
          "name": "to",
          "type": "address"
        },
        {
          "internalType": "uint256",
          "name": "tokenId",
          "type": "uint256"
        }
      ],
      "name": "approve",
      "outputs": [],
      "stateMutability": "nonpayable",
      "type": "function"
    },
    {
      "inputs": [
        {
          "internalType": "address",
          "name": "owner",
          "type": "address"
        }
      ],
      "name": "balanceOf",
      "outputs": [
        {
          "internalType": "uint256",
          "name": "",
          "type": "uint256"
        }
      ],
      "stateMutability": "view",
      "type": "function"
    },
    {
      "inputs": [
        {
          "internalType": "uint256",
          "name": "tokenId",
          "type": "uint256"
        }
      ],
      "name": "buyNFT",
      "outputs": [],
      "stateMutability": "payable",
      "type": "function"
    },
    {
      "inputs": [
        {
          "internalType": "uint256",
          "name": "tokenId",
          "type": "uint256"
        }
      ],
      "name": "getApproved",
      "outputs": [
        {
          "internalType": "address",
          "name": "",
          "type": "address"
        }
      ],
      "stateMutability": "view",
      "type": "function"
    },
    {
      "inputs": [
        {
          "internalType": "uint256",
          "name": "tokenId",
          "type": "uint256"
        }
      ],
      "name": "getListingPrice",
      "outputs": [
        {
          "internalType": "uint256",
          "name": "",
          "type": "uint256"
        }
      ],
      "stateMutability": "view",
      "type": "function"
    },
    {
      "inputs": [
        {
          "internalType": "address",
          "name": "owner",
          "type": "address"
        },
        {
          "internalType": "address",
          "name": "operator",
          "type": "address"
        }
      ],
      "name": "isApprovedForAll",
      "outputs": [
        {
          "internalType": "bool",
          "name": "",
          "type": "bool"
        }
      ],
      "stateMutability": "view",
      "type": "function"
    },
    {
      "inputs": [
        {
          "internalType": "uint256",
          "name": "tokenId",
          "type": "uint256"
        }
      ],
      "name": "isListed",
      "outputs": [
        {
          "internalType": "bool",
          "name": "",
          "type": "bool"
        }
      ],
      "stateMutability": "view",
      "type": "function"
    },
    {
      "inputs": [
        {
          "internalType": "uint256",
          "name": "tokenId",
          "type": "uint256"
        },
        {
          "internalType": "uint256",
          "name": "price",
          "type": "uint256"
        }
      ],
      "name": "listNFT",
      "outputs": [],
      "stateMutability": "nonpayable",
      "type": "function"
    },
    {
      "inputs": [
        {
          "internalType": "string",
          "name": "tokenURI",
          "type": "string"
        }
      ],
      "name": "mint",
      "outputs": [
        {
          "internalType": "uint256",
          "name": "",
          "type": "uint256"
        }
      ],
      "stateMutability": "nonpayable",
      "type": "function"
    },
    {
      "inputs": [],
      "name": "name",
      "outputs": [
        {
          "internalType": "string",
          "name": "",
          "type": "string"
        }
      ],
      "stateMutability": "view",
      "type": "function"
    },
    {
      "inputs": [
        {
          "internalType": "uint256",
          "name": "tokenId",
          "type": "uint256"
        }
      ],
      "name": "ownerOf",
      "outputs": [
        {
          "internalType": "address",
          "name": "",
          "type": "address"
        }
      ],
      "stateMutability": "view",
      "type": "function"
    },
    {
      "inputs": [
        {
          "internalType": "address",
          "name": "operator",
          "type": "address"
        },
        {
          "internalType": "bool",
          "name": "approved",
          "type": "bool"
        }
      ],
      "name": "setApprovalForAll",
      "outputs": [],
      "stateMutability": "nonpayable",
      "type": "function"
    },
    {
      "inputs": [],
      "name": "symbol",
      "outputs": [
        {
          "internalType": "string",
          "name": "",
          "type": "string"
        }
      ],
      "stateMutability": "view",
      "type": "function"
    },
    {
      "inputs": [
        {
          "internalType": "uint256",
          "name": "tokenId",
          "type": "uint256"
        }
      ],
      "name": "tokenURI",
      "outputs": [
        {
          "internalType": "string",
          "name": "",
          "type": "string"
        }
      ],
      "stateMutability": "view",
      "type": "function"
    },
    {
      "inputs": [
        {
          "internalType": "uint256",
          "name": "tokenId",
          "type": "uint256"
        }
      ],
      "name": "unlistNFT",
      "outputs": [],
      "stateMutability": "nonpayable",
      "type": "function"
    }
  ],
  "bytecode": "0x608060405234801561001057600080fd5b506040518060400160405280600e81526020017f4e46544d61726b6574706c6163650000000000000000000000000000000000008152506000908161005591906102f0565b506040518060400160405280600481526020017f4e46544d000000000000000000000000000000000000000000000000000000008152506001908161009a91906102f0565b506103c2565b600081519050919050565b7f4e487b7100000000000000000000000000000000000000000000000000000000600052604160045260246000fd5b7f4e487b7100000000000000000000000000000000000000000000000000000000600052602260045260246000fd5b6000600282049050600182168061012157607f821691505b602082108103610134576101336100da565b5b50919050565b60008190508160005260206000209050919050565b60006020601f8301049050919050565b600082821b905092915050565b60006008830261019c7fffffffffffffffffffffffffffffffffffffffffffffffffffffffffffffffff8261015f565b6101a6868361015f565b95508019841693508086168417925050509392505050565b6000819050919050565b6000819050919050565b60006101ed6101e86101e3846101be565b6101c8565b6101be565b9050919050565b6000819050919050565b610207836101d2565b61021b610213826101f4565b84845461016c565b825550505050565b600090565b610230610223565b61023b8184846101fe565b505050565b5b8181101561025f57610254600082610228565b600181019050610241565b5050565b601f8211156102a4576102758161013a565b61027e8461014f565b8101602085101561028d578190505b6102a16102998561014f565b830182610240565b50505b505050565b600082821c905092915050565b60006102c7600019846008026102a9565b1980831691505092915050565b60006102e083836102b6565b9150826002028217905092915050565b6102f9826100a0565b67ffffffffffffffff811115610312576103116100ab565b5b61031c8254610109565b610327828285610263565b600060209050601f83116001811461035a5760008415610348578287015190505b61035285826102d4565b8655506103ba565b601f1984166103688661013a565b60005b828110156103905784890151825560018201915060208501945060208101905061036b565b868310156103ad57848901516103a9601f8916826102b6565b8355505b6001600288020188555050505b505050505050565b6122e2806103d16000396000f3fe6080604052600436106100e85760003560e01c806395d89b411161008a578063d6077fbf11610059578063d6077fbf146102f7578063d85d3d2714610334578063e985e9c514610371578063fcce4883146103ae576100e8565b806395d89b411461023d578063961f094414610268578063a22cb46514610291578063c87b56dd146102ba576100e8565b806351ed8288116100c657806351ed82881461017e5780636352211e1461019a57806370a08231146101d757806394383f1414610214576100e8565b806306fdde03146100ed578063081812fc14610118578063095ea7b314610155575b600080fd5b3480156100f957600080fd5b506101026103eb565b60405161010f919061152a565b60405180910390f35b34801561012457600080fd5b5061013f600480360381019061013a9190611596565b610479565b60405161014c9190611604565b60405180910390f35b34801561016157600080fd5b5061017c6004803603810190610177919061164b565b610557565b005b61019860048036038101906101939190611596565b610660565b005b3480156101a657600080fd5b506101c160048036038101906101bc9190611596565b6109b5565b6040516101ce9190611604565b60405180910390f35b3480156101e357600080fd5b506101fe60048036038101906101f9919061168b565b610a66565b60405161020b91906116c7565b60405180910390f35b34801561022057600080fd5b5061023b600480360381019061023691906116e2565b610b1d565b005b34801561024957600080fd5b50610252610cd0565b60405161025f919061152a565b60405180910390f35b34801561027457600080fd5b5061028f600480360381019061028a9190611596565b610d5e565b005b34801561029d57600080fd5b506102b860048036038101906102b3919061175a565b610e9b565b005b3480156102c657600080fd5b506102e160048036038101906102dc9190611596565b611006565b6040516102ee919061152a565b60405180910390f35b34801561030357600080fd5b5061031e60048036038101906103199190611596565b61114d565b60405161032b91906116c7565b60405180910390f35b34801561034057600080fd5b5061035b600480360381019061035691906118cf565b6111d0565b60405161036891906116c7565b60405180910390f35b34801561037d57600080fd5b5061039860048036038101906103939190611918565b611320565b6040516103a59190611967565b60405180910390f35b3480156103ba57600080fd5b506103d560048036038101906103d09190611596565b6113b4565b6040516103e29190611967565b60405180910390f35b600080546103f8906119b1565b80601f0160208091040260200160405190810160405280929190818152602001828054610424906119b1565b80156104715780601f1061044657610100808354040283529160200191610471565b820191906000526020600020905b81548152906001019060200180831161045457829003601f168201915b505050505081565b60008073ffffffffffffffffffffffffffffffffffffffff166002600084815260200190815260200160002060009054906101000a900473ffffffffffffffffffffffffffffffffffffffff1673ffffffffffffffffffffffffffffffffffffffff160361051c576040517f08c379a000000000000000000000000000000000000000000000000000000000815260040161051390611a2e565b60405180910390fd5b6004600083815260200190815260200160002060009054906101000a900473ffffffffffffffffffffffffffffffffffffffff169050919050565b6000610562826109b5565b90508073ffffffffffffffffffffffffffffffffffffffff168373ffffffffffffffffffffffffffffffffffffffff16036105d2576040517f08c379a00000000000000000000000000000000000000000000000000000000081526004016105c990611a9a565b60405180910390fd5b8073ffffffffffffffffffffffffffffffffffffffff163373ffffffffffffffffffffffffffffffffffffffff16148061061257506106118133611320565b5b610651576040517f08c379a000000000000000000000000000000000000000000000000000000000815260040161064890611b06565b60405180910390fd5b61065b83836113e1565b505050565b6007600082815260200190815260200160002060010160009054906101000a900460ff166106c3576040517f08c379a00000000000000000000000000000000000000000000000000000000081526004016106ba90611b72565b60405180910390fd5b6007600082815260200190815260200160002060000154341461071b576040517f08c379a000000000000000000000000000000000000000000000000000000000815260040161071290611bde565b60405180910390fd5b6000610726826109b5565b90508073ffffffffffffffffffffffffffffffffffffffff163373ffffffffffffffffffffffffffffffffffffffff1603610796576040517f08c379a000000000000000000000000000000000000000000000000000000000815260040161078d90611c4a565b60405180910390fd5b6001600360008373ffffffffffffffffffffffffffffffffffffffff1673ffffffffffffffffffffffffffffffffffffffff16815260200190815260200160002060008282546107e69190611c99565b925050819055506001600360003373ffffffffffffffffffffffffffffffffffffffff1673ffffffffffffffffffffffffffffffffffffffff168152602001908152602001600020600082825461083d9190611ccd565b92505081905550336002600084815260200190815260200160002060006101000a81548173ffffffffffffffffffffffffffffffffffffffff021916908373ffffffffffffffffffffffffffffffffffffffff160217905550600760008381526020019081526020016000206000808201600090556001820160006101000a81549060ff021916905550506108d36000836113e1565b8073ffffffffffffffffffffffffffffffffffffffff166108fc349081150290604051600060405180830381858888f19350505050158015610919573d6000803e3d6000fd5b50817f8562eb94748e30bb0071e932744ce902b460c683474fcb3bfd567ffa16b1afb282333460405161094e93929190611d01565b60405180910390a2813373ffffffffffffffffffffffffffffffffffffffff168273ffffffffffffffffffffffffffffffffffffffff167fddf252ad1be2c89b69c2b068fc378daa952ba7f163c4a11628f55a4df523b3ef60405160405180910390a45050565b6000806002600084815260200190815260200160002060009054906101000a900473ffffffffffffffffffffffffffffffffffffffff169050600073ffffffffffffffffffffffffffffffffffffffff168173ffffffffffffffffffffffffffffffffffffffff1603610a5d576040517f08c379a0000000000000000000000000000000000000000000000000000000008152600401610a5490611a2e565b60405180910390fd5b80915050919050565b60008073ffffffffffffffffffffffffffffffffffffffff168273ffffffffffffffffffffffffffffffffffffffff1603610ad6576040517f08c379a0000000000000000000000000000000000000000000000000000000008152600401610acd90611daa565b60405180910390fd5b600360008373ffffffffffffffffffffffffffffffffffffffff1673ffffffffffffffffffffffffffffffffffffffff168152602001908152602001600020549050919050565b813373ffffffffffffffffffffffffffffffffffffffff16610b3e826109b5565b73ffffffffffffffffffffffffffffffffffffffff1614610b94576040517f08c379a0000000000000000000000000000000000000000000000000000000008152600401610b8b90611e16565b60405180910390fd5b60008211610bd7576040517f08c379a0000000000000000000000000000000000000000000000000000000008152600401610bce90611e82565b60405180910390fd5b6007600084815260200190815260200160002060010160009054906101000a900460ff1615610c3b576040517f08c379a0000000000000000000000000000000000000000000000000000000008152600401610c3290611eee565b60405180910390fd5b604051806040016040528083815260200160011515815250600760008581526020019081526020016000206000820151816000015560208201518160010160006101000a81548160ff021916908315150217905550905050827fa6cd73580a273eec6c1026108f6b63479fbaef5356dde4ff43e4b38dd187485f83604051610cc391906116c7565b60405180910390a2505050565b60018054610cdd906119b1565b80601f0160208091040260200160405190810160405280929190818152602001828054610d09906119b1565b8015610d565780601f10610d2b57610100808354040283529160200191610d56565b820191906000526020600020905b815481529060010190602001808311610d3957829003601f168201915b505050505081565b803373ffffffffffffffffffffffffffffffffffffffff16610d7f826109b5565b73ffffffffffffffffffffffffffffffffffffffff1614610dd5576040517f08c379a0000000000000000000000000000000000000000000000000000000008152600401610dcc90611e16565b60405180910390fd5b6007600083815260200190815260200160002060010160009054906101000a900460ff16610e38576040517f08c379a0000000000000000000000000000000000000000000000000000000008152600401610e2f90611f5a565b60405180910390fd5b600760008381526020019081526020016000206000808201600090556001820160006101000a81549060ff02191690555050817fcd14eb7ebf273ed59a9fd1cf8651f3f40d9a04355b3511376f0d17b37ba224ff60405160405180910390a25050565b3373ffffffffffffffffffffffffffffffffffffffff168273ffffffffffffffffffffffffffffffffffffffff1603610f09576040517f08c379a0000000000000000000000000000000000000000000000000000000008152600401610f0090611fc6565b60405180910390fd5b80600560003373ffffffffffffffffffffffffffffffffffffffff1673ffffffffffffffffffffffffffffffffffffffff16815260200190815260200160002060008473ffffffffffffffffffffffffffffffffffffffff1673ffffffffffffffffffffffffffffffffffffffff16815260200190815260200160002060006101000a81548160ff0219169083151502179055508173ffffffffffffffffffffffffffffffffffffffff163373ffffffffffffffffffffffffffffffffffffffff167f17307eab39ab6107e8899845ad3d59bd9653f200f220920489ca2b5937696c3183604051610ffa9190611967565b60405180910390a35050565b6060600073ffffffffffffffffffffffffffffffffffffffff166002600084815260200190815260200160002060009054906101000a900473ffffffffffffffffffffffffffffffffffffffff1673ffffffffffffffffffffffffffffffffffffffff16036110aa576040517f08c379a00000000000000000000000000000000000000000000000000000000081526004016110a190611a2e565b60405180910390fd5b6006600083815260200190815260200160002080546110c8906119b1565b80601f01602080910402602001604051908101604052809291908181526020018280546110f4906119b1565b80156111415780601f1061111657610100808354040283529160200191611141565b820191906000526020600020905b81548152906001019060200180831161112457829003601f168201915b50505050509050919050565b60006007600083815260200190815260200160002060010160009054906101000a900460ff166111b2576040517f08c379a00000000000000000000000000000000000000000000000000000000081526004016111a990611f5a565b60405180910390fd5b60076000838152602001908152602001600020600001549050919050565b6000600860008154809291906111e590611fe6565b919050555060006008549050336002600083815260200190815260200160002060006101000a81548173ffffffffffffffffffffffffffffffffffffffff021916908373ffffffffffffffffffffffffffffffffffffffff1602179055506001600360003373ffffffffffffffffffffffffffffffffffffffff1673ffffffffffffffffffffffffffffffffffffffff16815260200190815260200160002060008282546112939190611ccd565b92505081905550826006600083815260200190815260200160002090816112ba91906121da565b50803373ffffffffffffffffffffffffffffffffffffffff16600073ffffffffffffffffffffffffffffffffffffffff167fddf252ad1be2c89b69c2b068fc378daa952ba7f163c4a11628f55a4df523b3ef60405160405180910390a480915050919050565b6000600560008473ffffffffffffffffffffffffffffffffffffffff1673ffffffffffffffffffffffffffffffffffffffff16815260200190815260200160002060008373ffffffffffffffffffffffffffffffffffffffff1673ffffffffffffffffffffffffffffffffffffffff16815260200190815260200160002060009054906101000a900460ff16905092915050565b60006007600083815260200190815260200160002060010160009054906101000a900460ff169050919050565b816004600083815260200190815260200160002060006101000a81548173ffffffffffffffffffffffffffffffffffffffff021916908373ffffffffffffffffffffffffffffffffffffffff160217905550808273ffffffffffffffffffffffffffffffffffffffff16611454836109b5565b73ffffffffffffffffffffffffffffffffffffffff167f8c5be1e5ebec7d5bd14f71427d1e84f3dd0314c0f7b2291e5b200ac8c7c3b92560405160405180910390a45050565b600081519050919050565b600082825260208201905092915050565b60005b838110156114d45780820151818401526020810190506114b9565b60008484015250505050565b6000601f19601f8301169050919050565b60006114fc8261149a565b61150681856114a5565b93506115168185602086016114b6565b61151f816114e0565b840191505092915050565b6000602082019050818103600083015261154481846114f1565b905092915050565b6000604051905090565b600080fd5b600080fd5b6000819050919050565b61157381611560565b811461157e57600080fd5b50565b6000813590506115908161156a565b92915050565b6000602082840312156115ac576115ab611556565b5b60006115ba84828501611581565b91505092915050565b600073ffffffffffffffffffffffffffffffffffffffff82169050919050565b60006115ee826115c3565b9050919050565b6115fe816115e3565b82525050565b600060208201905061161960008301846115f5565b92915050565b611628816115e3565b811461163357600080fd5b50565b6000813590506116458161161f565b92915050565b6000806040838503121561166257611661611556565b5b600061167085828601611636565b925050602061168185828601611581565b9150509250929050565b6000602082840312156116a1576116a0611556565b5b60006116af84828501611636565b91505092915050565b6116c181611560565b82525050565b60006020820190506116dc60008301846116b8565b92915050565b600080604083850312156116f9576116f8611556565b5b600061170785828601611581565b925050602061171885828601611581565b9150509250929050565b60008115159050919050565b61173781611722565b811461174257600080fd5b50565b6000813590506117548161172e565b92915050565b6000806040838503121561177157611770611556565b5b600061177f85828601611636565b925050602061179085828601611745565b9150509250929050565b600080fd5b600080fd5b7f4e487b7100000000000000000000000000000000000000000000000000000000600052604160045260246000fd5b6117dc826114e0565b810181811067ffffffffffffffff821117156117fb576117fa6117a4565b5b80604052505050565b600061180e61154c565b905061181a82826117d3565b919050565b600067ffffffffffffffff82111561183a576118396117a4565b5b611843826114e0565b9050602081019050919050565b82818337600083830152505050565b600061187261186d8461181f565b611804565b90508281526020810184848401111561188e5761188d61179f565b5b611899848285611850565b509392505050565b600082601f8301126118b6576118b561179a565b5b81356118c684826020860161185f565b91505092915050565b6000602082840312156118e5576118e4611556565b5b600082013567ffffffffffffffff8111156119035761190261155b565b5b61190f848285016118a1565b91505092915050565b6000806040838503121561192f5761192e611556565b5b600061193d85828601611636565b925050602061194e85828601611636565b9150509250929050565b61196181611722565b82525050565b600060208201905061197c6000830184611958565b92915050565b7f4e487b7100000000000000000000000000000000000000000000000000000000600052602260045260246000fd5b600060028204905060018216806119c957607f821691505b6020821081036119dc576119db611982565b5b50919050565b7f546f6b656e20494420646f6573206e6f74206578697374000000000000000000600082015250565b6000611a186017836114a5565b9150611a23826119e2565b602082019050919050565b60006020820190508181036000830152611a4781611a0b565b9050919050565b7f417070726f76616c20746f2063757272656e74206f776e657200000000000000600082015250565b6000611a846019836114a5565b9150611a8f82611a4e565b602082019050919050565b60006020820190508181036000830152611ab381611a77565b9050919050565b7f4e6f7420617574686f72697a6564000000000000000000000000000000000000600082015250565b6000611af0600e836114a5565b9150611afb82611aba565b602082019050919050565b60006020820190508181036000830152611b1f81611ae3565b9050919050565b7f4e4654206973206e6f74206c697374656420666f722073616c65000000000000600082015250565b6000611b5c601a836114a5565b9150611b6782611b26565b602082019050919050565b60006020820190508181036000830152611b8b81611b4f565b9050919050565b7f496e636f72726563742070726963650000000000000000000000000000000000600082015250565b6000611bc8600f836114a5565b9150611bd382611b92565b602082019050919050565b60006020820190508181036000830152611bf781611bbb565b9050919050565b7f43616e6e6f742062757920796f7572206f776e204e4654000000000000000000600082015250565b6000611c346017836114a5565b9150611c3f82611bfe565b602082019050919050565b60006020820190508181036000830152611c6381611c27565b9050919050565b7f4e487b7100000000000000000000000000000000000000000000000000000000600052601160045260246000fd5b6000611ca482611560565b9150611caf83611560565b9250828203905081811115611cc757611cc6611c6a565b5b92915050565b6000611cd882611560565b9150611ce383611560565b9250828201905080821115611cfb57611cfa611c6a565b5b92915050565b6000606082019050611d1660008301866115f5565b611d2360208301856115f5565b611d3060408301846116b8565b949350505050565b7f41646472657373207a65726f206973206e6f7420612076616c6964206f776e6560008201527f7200000000000000000000000000000000000000000000000000000000000000602082015250565b6000611d946021836114a5565b9150611d9f82611d38565b604082019050919050565b60006020820190508181036000830152611dc381611d87565b9050919050565b7f4e6f742074686520746f6b656e206f776e657200000000000000000000000000600082015250565b6000611e006013836114a5565b9150611e0b82611dca565b602082019050919050565b60006020820190508181036000830152611e2f81611df3565b9050919050565b7f5072696365206d7573742062652067726561746572207468616e203000000000600082015250565b6000611e6c601c836114a5565b9150611e7782611e36565b602082019050919050565b60006020820190508181036000830152611e9b81611e5f565b9050919050565b7f4e465420697320616c7265616479206c69737465640000000000000000000000600082015250565b6000611ed86015836114a5565b9150611ee382611ea2565b602082019050919050565b60006020820190508181036000830152611f0781611ecb565b9050919050565b7f4e4654206973206e6f74206c6973746564000000000000000000000000000000600082015250565b6000611f446011836114a5565b9150611f4f82611f0e565b602082019050919050565b60006020820190508181036000830152611f7381611f37565b9050919050565b7f43616e6e6f7420617070726f76652073656c66206173206f70657261746f7200600082015250565b6000611fb0601f836114a5565b9150611fbb82611f7a565b602082019050919050565b60006020820190508181036000830152611fdf81611fa3565b9050919050565b6000611ff182611560565b91507fffffffffffffffffffffffffffffffffffffffffffffffffffffffffffffffff820361202357612022611c6a565b5b600182019050919050565b60008190508160005260206000209050919050565b60006020601f8301049050919050565b600082821b905092915050565b6000600883026120907fffffffffffffffffffffffffffffffffffffffffffffffffffffffffffffffff82612053565b61209a8683612053565b95508019841693508086168417925050509392505050565b6000819050919050565b60006120d76120d26120cd84611560565b6120b2565b611560565b9050919050565b6000819050919050565b6120f1836120bc565b6121056120fd826120de565b848454612060565b825550505050565b600090565b61211a61210d565b6121258184846120e8565b505050565b5b818110156121495761213e600082612112565b60018101905061212b565b5050565b601f82111561218e5761215f8161202e565b61216884612043565b81016020851015612177578190505b61218b61218385612043565b83018261212a565b50505b505050565b600082821c905092915050565b60006121b160001984600802612193565b1980831691505092915050565b60006121ca83836121a0565b9150826002028217905092915050565b6121e38261149a565b67ffffffffffffffff8111156121fc576121fb6117a4565b5b61220682546119b1565b61221182828561214d565b600060209050601f8311600181146122445760008415612232578287015190505b61223c85826121be565b8655506122a4565b601f1984166122528661202e565b60005b8281101561227a57848901518255600182019150602085019450602081019050612255565b868310156122975784890151612293601f8916826121a0565b8355505b6001600288020188555050505b50505050505056fea26469706673582212202d44efd0db8788636a247835e755fc6ce7acecf9cd6cc2c04dd0bbbcc20ae3e564736f6c634300081c0033",
  "linkReferences": {},
  "deployedLinkReferences": {}
}